:020000040000FA
:100000000A128A11EE2F00308A000408840A82073F
:1000100000342A342A3420344C34433444342034D9
:10002000743465347334743420342A342A340034FC
:040030002034003444
:1007E2000134F42BF42B8316031311081F39031D54
:1007F200FB2BFC2BF42B1419FF2B002CF42B012CBC
:10080200DF30F00070088312031394050800F6002D
:10081200760803190D2C0E2C132C83120313A50139
:10082200A50A162C83120313A501A601A7012B0802
:10083200F5007508A00074080A128A11DF250A1251
:100842008A1174080A128A1152250A128A110800A2
:10085200F50083120313A501A50AA601A7012B081F
:10086200F4007408A000522C750884000A128A1140
:1008720003200A128A110A128A11DF250A128A112A
:10088200750884000A128A1103200A128A110A12B8
:100892008A1152250A128A110130F4007408F507F0
:1008A200522C750884000A128A1103200A128A1136
:1008B200003A031D5D2C5E2C352C5F2C0800FA00DB
:1008C200762CFB018C2C4030F8007808FB008C2C35
:1008D2001430F8007808FB008C2C5430F8007808AB
:1008E200FB008C2CFB018C2C8C2C7708F800F90176
:1008F2007908003A03197E2C732C7808013A0319FF
:10090200622C033A0319642C013A0319692C073A41
:1009120003196E2C732C7A08FF3EF8007808FB0747
:100922007B088038F8007808F40000300A128A1137
:1009320008240A128A1108009F2C9F2C8316031385
:1009420011081F39031DA62CA72C9F2C1419AA2CA1
:10095200AB2C9F2CAC2C2830F000700883120313B0
:100962009404B42CB42C8316031311081F39031DED
:10097200BB2CBC2CB42C1419BF2CC02CB42C1114BD
:10098200C32CC32C11081F39031DC82CC92CC32C1E
:100992001419CC2CCD2CC32CD02CD02CD02C11083B
:1009A2001F39031DD52CD62CD02C1419D92CDA2C96
:1009B200D02CDB2C4E30831203139300E02C8316D1
:1009C20003131418E52CE62CE02C91121116E92CD5
:1009D200911DEC2CED2CF32C111AF02CF12CE92C9E
:1009E200F32CF32C0800F201831203132708F00002
:1009F20001300310F00DFF3E031DFA2C0310700DA1
:100A0200F1007108F2042608F0007007F100710885
:100A1200F2042508F0007008F2042408F000033004
:100A22000310F00DFF3E031D112D0310700DF10098
:100A32007108F2042308F00004300310F00DFF3EA9
:100A4200031D1E2D0310700DF1007108F20422081F
:100A5200F00005300310F00DFF3E031D2B2D031097
:100A6200700DF1007108F2042108F0000630031045
:100A7200F00DFF3E031D382D0310700DF1007108BB
:100A8200F2042008F00002300310F00DFF3E031DB7
:100A9200452D0310700DF1007108F2047208512DFA
:100AA2000800F300F31D562D572D5C2D83120313FE
:100AB200A101A10A602D83120313A101602D731DF0
:100AC200632D642D672DA201A20A692DA201692D51
:100AD200F31C6C2D6D2D702DA301A30A722DA301A1
:100AE200722D731C752D762D792DA401A40A7A2DF1
:100AF200A401A7017D2D7D2D8316031311081F3933
:100B0200031D842D852D7D2D1419882D892D7D2D74
:100B12008A2D0A128A11F4240A128A1183120313EB
:100B22009300932D831603131418982D992D932D4A
:100B320083120313A701A70A9F2D9F2D8316031368
:100B420011081F39031DA62DA72D9F2D1419AA2D9B
:100B5200AB2D9F2DAC2D0A128A11F4240A128A1190
:100B6200831203139300B52D831603131418BA2DA1
:100B7200BB2DB52DBC2D83120313A701C12DC12D91
:100B82008316031311081F39031DC82DC92DC12D4A
:100B92001419CC2DCD2DC12DCE2D0A128A11F4247B
:100BA2000A128A11831203139300D72D831603139B
:100BB2001418DC2DDD2DD72DDE2D0800F300F31FD8
:100BC200E32DE42DE92D83120313A101A10AED2DDA
:100BD20083120313A101ED2D731FF02DF12DF42DBE
:100BE200A201A20AF62DA201F62DF31EF92DFA2D6D
:100BF200FD2DA301A30AFF2DA301FF2D731E022EBB
:100C0200032E062EA401A40A072EA401A7010A2E70
:100C12000A2E8316031311081F39031D112E122EDB
:100C22000A2E1419152E162E0A2E172E0A128A11A2
:100C3200F4240A128A11831203139300202E8316BE
:100C420003131418252E262E202E83120313A70118
:100C5200A70A2C2E2C2E8316031311081F39031DED
:100C6200332E342E2C2E1419372E382E2C2E392EAC
:100C72000A128A11F4240A128A11831203139300AE
:100C8200422E831603131418472E482E422E492E45
:100C920083120313A7014E2E4E2E8316031311083F
:100CA2001F39031D552E562E4E2E1419592E5A2E0B
:100CB2004E2E5B2E0A128A11F4240A128A11831212
:100CC20003139300642E831603131418692E6A2EDD
:100CD200642E6B2E08000A128A119D240A128A11B0
:100CE2000330F7007708F40000300A128A11082452
:100CF2000A128A110730F8007D30F700F70B7F2EB9
:100D0200F80B7F2E0330F7007708F40000300A1248
:100D12008A1108240A128A110730F8007D30F70080
:100D2200F70B912EF80B912E0330F7007708F400A1
:100D320000300A128A1108240A128A110730F800B8
:100D42007D30F700F70BA32EF80BA32E0230F7002D
:100D52007708F40000300A128A1108240A128A1154
:100D62000730F8007D30F700F70BB52EF80BB52EE3
:100D72000230F7007708F40000300A128A110824C2
:100D82000A128A110730F8007D30F700F70BC72EE0
:100D9200F80BC72EF401F40A00300A128A11082453
:100DA2000A128A110730F8007D30F700F70BD72EB0
:100DB200F80BD72E0C30F7007708F40000300A1237
:100DC2008A1108240A128A110730F8007D30F700D0
:100DD200F70BE92EF80BE92EF401F40A00300A129F
:100DE2008A1108240A128A110730F8007D30F700B0
:100DF200F70BF92EF80BF92E0630F7007708F400FE
:100E020000300A128A1108240A128A110730F800E7
:100E12007D30F700F70B0B2FF80B0B2F08000F306C
:100E22008316031386008113880100308312031393
:100E320006180130FC007C08031D202F212F4C2FA7
:100E42005530A8002808FD007D0888000230831272
:100E52000313AA004530A900A930A800A80B2F2F20
:100E6200A90B2F2FAA0B2F2FAA3083120313A8002E
:100E72002808FD007D088800023083120313AA00AF
:100E82004530A900A930A800A80B452FA90B452F72
:100E9200AA0B452F4C2F0030831203138618013002
:100EA200FC007C08031D562F572F822F0F30A800FD
:100EB2002808FD007D088800023083120313AA006F
:100EC2004530A900A930A800A80B652FA90B652FF2
:100ED200AA0B652FF03083120313A8002808FD0027
:100EE2007D088800023083120313AA004530A9004E
:100EF200A930A800A80B7B2FA90B7B2FAA0B7B2F55
:100F0200822F8316031387150716071687154C3091
:100F12009300940128308312031394008316031361
:100F22009101932F0A128A119D240A128A110A1220
:100F32008A116C260A128A11F701F70A01300A1285
:100F42008A1160240A128A1101300A128A11292494
:100F52000A128A110A128A11F2230A128A1106301F
:100F620083120313AA001330A900AD30A800A80B06
:100F7200B82FA90BB82FAA0BB82F0F308312031367
:100F8200A8002808FD0001308800023083120313F4
:100F9200AA004530A900A930A800A80BCE2FA90BA2
:100FA200CE2FAA0BCE2FFD017D08831203138800DA
:100FB200023083120313AA004530A900A930A80009
:100FC200A80BE12FA90BE12FAA0BE12F932F932F4F
:100FD200162F162F0A128A1100280A128A11F123DB
:100FE2000A128A11AB00A001A101A201A301A4016E
:0E0FF200A501A601A70183010A128A11102F82
:02400E00393F38
:00000001FF
